{
  "contractName": "banksystem",
  "abi": [
    {
      "inputs": [],
      "stateMutability": "payable",
      "type": "constructor"
    },
    {
      "inputs": [],
      "name": "Bank_Owner",
      "outputs": [
        {
          "internalType": "address",
          "name": "",
          "type": "address"
        }
      ],
      "stateMutability": "view",
      "type": "function"
    },
    {
      "inputs": [],
      "name": "Total_BalanceReceived",
      "outputs": [
        {
          "internalType": "uint256",
          "name": "",
          "type": "uint256"
        }
      ],
      "stateMutability": "view",
      "type": "function"
    },
    {
      "inputs": [],
      "name": "Current_Balance",
      "outputs": [
        {
          "internalType": "uint256",
          "name": "",
          "type": "uint256"
        }
      ],
      "stateMutability": "view",
      "type": "function"
    },
    {
      "inputs": [],
      "name": "Total_Accounts",
      "outputs": [
        {
          "internalType": "uint16",
          "name": "",
          "type": "uint16"
        }
      ],
      "stateMutability": "view",
      "type": "function"
    },
    {
      "inputs": [
        {
          "internalType": "address",
          "name": "_account2",
          "type": "address"
        }
      ],
      "name": "Account_Status",
      "outputs": [
        {
          "internalType": "bool",
          "name": "",
          "type": "bool"
        }
      ],
      "stateMutability": "view",
      "type": "function"
    },
    {
      "inputs": [],
      "name": "Create_Account",
      "outputs": [
        {
          "internalType": "string",
          "name": "",
          "type": "string"
        }
      ],
      "stateMutability": "payable",
      "type": "function"
    },
    {
      "inputs": [],
      "name": "Deposit_Funds",
      "outputs": [],
      "stateMutability": "payable",
      "type": "function"
    },
    {
      "inputs": [
        {
          "internalType": "uint256",
          "name": "_amount",
          "type": "uint256"
        }
      ],
      "name": "Withdraw_Funds",
      "outputs": [
        {
          "internalType": "string",
          "name": "",
          "type": "string"
        }
      ],
      "stateMutability": "payable",
      "type": "function"
    },
    {
      "inputs": [
        {
          "internalType": "address",
          "name": "_address1",
          "type": "address"
        }
      ],
      "name": "Balance_Inquiry",
      "outputs": [
        {
          "internalType": "uint256",
          "name": "",
          "type": "uint256"
        }
      ],
      "stateMutability": "view",
      "type": "function"
    },
    {
      "inputs": [
        {
          "internalType": "address payable",
          "name": "_to",
          "type": "address"
        },
        {
          "internalType": "uint256",
          "name": "_amount1",
          "type": "uint256"
        }
      ],
      "name": "Transfer_Funds",
      "outputs": [
        {
          "internalType": "string",
          "name": "",
          "type": "string"
        }
      ],
      "stateMutability": "payable",
      "type": "function"
    },
    {
      "inputs": [],
      "name": "Closing_Account",
      "outputs": [
        {
          "internalType": "string",
          "name": "",
          "type": "string"
        }
      ],
      "stateMutability": "payable",
      "type": "function"
    },
    {
      "inputs": [],
      "name": "Closing_Bank",
      "outputs": [],
      "stateMutability": "nonpayable",
      "type": "function"
    }
  ],
  "bytecode": "0x60806040526802b5e3af16b188000034101562000053576040517f08c379a00000000000000000000000000000000000000000000000000000000081526004016200004a9062000159565b60405180910390fd5b3460016000828254620000679190620001b4565b92505081905550336000806101000a81548173ffffffffffffffffffffffffffffffffffffffff021916908373ffffffffffffffffffffffffffffffffffffffff1602179055506000600260006101000a81548161ffff021916908361ffff16021790555062000211565b600082825260208201905092915050565b7f4d696e696d756d203530204554485320726571756972656420746f207374617260008201527f74207468652062616e6b00000000000000000000000000000000000000000000602082015250565b600062000141602a83620000d2565b91506200014e82620000e3565b604082019050919050565b60006020820190508181036000830152620001748162000132565b9050919050565b6000819050919050565b7f4e487b7100000000000000000000000000000000000000000000000000000000600052601160045260246000fd5b6000620001c1826200017b565b9150620001ce836200017b565b9250827fffffffffffffffffffffffffffffffffffffffffffffffffffffffffffffffff0382111562000206576200020562000185565b5b828201905092915050565b61196880620002216000396000f3fe6080604052600436106100a75760003560e01c8063b6a583f011610064578063b6a583f01461018b578063bc404846146101bb578063d7940202146101f8578063f813f10914610228578063fc1ea1d414610246578063ff59d94e14610264576100a7565b80630cc423b8146100ac5780632c5ca7f0146100e95780633409e0b81461011457806344ae40571461011e5780638801d8ca14610149578063a1f4215114610160575b600080fd5b3480156100b857600080fd5b506100d360048036038101906100ce9190611135565b61028f565b6040516100e0919061117d565b60405180910390f35b3480156100f557600080fd5b506100fe6102e5565b60405161010b91906111b5565b60405180910390f35b61011c610356565b005b34801561012a57600080fd5b5061013361045a565b60405161014091906111e9565b60405180910390f35b34801561015557600080fd5b5061015e6104bb565b005b34801561016c57600080fd5b5061017561054c565b6040516101829190611213565b60405180910390f35b6101a560048036038101906101a09190611298565b610575565b6040516101b29190611371565b60405180910390f35b3480156101c757600080fd5b506101e260048036038101906101dd9190611135565b61085c565b6040516101ef91906111e9565b60405180910390f35b610212600480360381019061020d9190611393565b61098e565b60405161021f9190611371565b60405180910390f35b610230610bc2565b60405161023d9190611371565b60405180910390f35b61024e610e41565b60405161025b9190611371565b60405180910390f35b34801561027057600080fd5b5061027961106f565b60405161028691906111e9565b60405180910390f35b6000600460008373ffffffffffffffffffffffffffffffffffffffff1673ffffffffffffffffffffffffffffffffffffffff16815260200190815260200160002060009054906101000a900460ff169050919050565b60008060009054906101000a900473ffffffffffffffffffffffffffffffffffffffff1673ffffffffffffffffffffffffffffffffffffffff163373ffffffffffffffffffffffffffffffffffffffff161461034057600080fd5b600260009054906101000a900461ffff16905090565b60011515600460003373ffffffffffffffffffffffffffffffffffffffff1673ffffffffffffffffffffffffffffffffffffffff16815260200190815260200160002060009054906101000a900460ff161515146103e9576040517f08c379a00000000000000000000000000000000000000000000000000000000081526004016103e09061140c565b60405180910390fd5b34600360003373ffffffffffffffffffffffffffffffffffffffff1673ffffffffffffffffffffffffffffffffffffffff1681526020019081526020016000206000828254610438919061145b565b925050819055503460016000828254610451919061145b565b92505081905550565b60008060009054906101000a900473ffffffffffffffffffffffffffffffffffffffff1673ffffffffffffffffffffffffffffffffffffffff163373ffffffffffffffffffffffffffffffffffffffff16146104b557600080fd5b47905090565b60008054906101000a900473ffffffffffffffffffffffffffffffffffffffff1673ffffffffffffffffffffffffffffffffffffffff163373ffffffffffffffffffffffffffffffffffffffff161461051357600080fd5b60008054906101000a900473ffffffffffffffffffffffffffffffffffffffff1673ffffffffffffffffffffffffffffffffffffffff16ff5b60008060009054906101000a900473ffffffffffffffffffffffffffffffffffffffff16905090565b6060600082116105ba576040517f08c379a00000000000000000000000000000000000000000000000000000000081526004016105b190611523565b60405180910390fd5b81600360003373ffffffffffffffffffffffffffffffffffffffff1673ffffffffffffffffffffffffffffffffffffffff16815260200190815260200160002054101561063c576040517f08c379a00000000000000000000000000000000000000000000000000000000081526004016106339061158f565b60405180910390fd5b60011515600460008573ffffffffffffffffffffffffffffffffffffffff1673ffffffffffffffffffffffffffffffffffffffff16815260200190815260200160002060009054906101000a900460ff1615151480156106ec575060011515600460003373ffffffffffffffffffffffffffffffffffffffff1673ffffffffffffffffffffffffffffffffffffffff16815260200190815260200160002060009054906101000a900460ff161515145b61072b576040517f08c379a000000000000000000000000000000000000000000000000000000000815260040161072290611647565b60405180910390fd5b81600360003373ffffffffffffffffffffffffffffffffffffffff1673ffffffffffffffffffffffffffffffffffffffff168152602001908152602001600020600082825461077a9190611667565b925050819055508273ffffffffffffffffffffffffffffffffffffffff166108fc839081150290604051600060405180830381858888f193505050501580156107c7573d6000803e3d6000fd5b5081600360008573ffffffffffffffffffffffffffffffffffffffff1673ffffffffffffffffffffffffffffffffffffffff1681526020019081526020016000206000828254610817919061145b565b925050819055506040518060400160405280601781526020017f416d6f756e742073656e642073756365737366756c6c79000000000000000000815250905092915050565b600060011515600460003373ffffffffffffffffffffffffffffffffffffffff1673ffffffffffffffffffffffffffffffffffffffff16815260200190815260200160002060009054906101000a900460ff161515148061090857503373ffffffffffffffffffffffffffffffffffffffff1660008054906101000a900473ffffffffffffffffffffffffffffffffffffffff1673ffffffffffffffffffffffffffffffffffffffff16145b610947576040517f08c379a000000000000000000000000000000000000000000000000000000000815260040161093e906116e7565b60405180910390fd5b600360008373ffffffffffffffffffffffffffffffffffffffff1673ffffffffffffffffffffffffffffffffffffffff168152602001908152602001600020549050919050565b606081600360003373ffffffffffffffffffffffffffffffffffffffff1673ffffffffffffffffffffffffffffffffffffffff168152602001908152602001600020541015610a12576040517f08c379a0000000000000000000000000000000000000000000000000000000008152600401610a0990611753565b60405180910390fd5b60011515600460003373ffffffffffffffffffffffffffffffffffffffff1673ffffffffffffffffffffffffffffffffffffffff16815260200190815260200160002060009054906101000a900460ff16151514610aa5576040517f08c379a0000000000000000000000000000000000000000000000000000000008152600401610a9c9061140c565b60405180910390fd5b60008211610ae8576040517f08c379a0000000000000000000000000000000000000000000000000000000008152600401610adf906117bf565b60405180910390fd5b81600360003373ffffffffffffffffffffffffffffffffffffffff1673ffffffffffffffffffffffffffffffffffffffff1681526020019081526020016000206000828254610b379190611667565b925050819055503373ffffffffffffffffffffffffffffffffffffffff166108fc839081150290604051600060405180830381858888f19350505050158015610b84573d6000803e3d6000fd5b506040518060400160405280601481526020017f57697468647261776c2073756365737366756c6c0000000000000000000000008152509050919050565b606060001515600460003373ffffffffffffffffffffffffffffffffffffffff1673ffffffffffffffffffffffffffffffffffffffff16815260200190815260200160002060009054906101000a900460ff16151514610c57576040517f08c379a0000000000000000000000000000000000000000000000000000000008152600401610c4e9061182b565b60405180910390fd5b60003411610c9a576040517f08c379a0000000000000000000000000000000000000000000000000000000008152600401610c91906118bd565b60405180910390fd5b34600360003373ffffffffffffffffffffffffffffffffffffffff1673ffffffffffffffffffffffffffffffffffffffff168152602001908152602001600020819055503460016000828254610cf0919061145b565b925050819055506001600460003373ffffffffffffffffffffffffffffffffffffffff1673ffffffffffffffffffffffffffffffffffffffff16815260200190815260200160002060006101000a81548160ff0219169083151502179055506005600260009054906101000a900461ffff1661ffff161015610e06576002600081819054906101000a900461ffff1680929190610d8c906118dd565b91906101000a81548161ffff021916908361ffff16021790555050670de0b6b3a7640000600360003373ffffffffffffffffffffffffffffffffffffffff1673ffffffffffffffffffffffffffffffffffffffff1681526020019081526020016000206000828254610dfe919061145b565b925050819055505b6040518060400160405280600f81526020017f4163636f756e7420437265617465640000000000000000000000000000000000815250905090565b606060011515600460003373ffffffffffffffffffffffffffffffffffffffff1673ffffffffffffffffffffffffffffffffffffffff16815260200190815260200160002060009054906101000a900460ff16151514610ed6576040517f08c379a0000000000000000000000000000000000000000000000000000000008152600401610ecd906116e7565b60405180910390fd5b3373ffffffffffffffffffffffffffffffffffffffff166108fc600360003373ffffffffffffffffffffffffffffffffffffffff1673ffffffffffffffffffffffffffffffffffffffff168152602001908152602001600020549081150290604051600060405180830381858888f19350505050158015610f5b573d6000803e3d6000fd5b506000600360003373ffffffffffffffffffffffffffffffffffffffff1673ffffffffffffffffffffffffffffffffffffffff168152602001908152602001600020819055506000600460003373ffffffffffffffffffffffffffffffffffffffff1673ffffffffffffffffffffffffffffffffffffffff16815260200190815260200160002060006101000a81548160ff0219169083151502179055506002600081819054906101000a900461ffff168092919061101990611908565b91906101000a81548161ffff021916908361ffff160217905550506040518060400160405280601c81526020017f4163636f756e7420697320636c6f73652073756365737366756c6c7900000000815250905090565b60008060009054906101000a900473ffffffffffffffffffffffffffffffffffffffff1673ffffffffffffffffffffffffffffffffffffffff163373ffffffffffffffffffffffffffffffffffffffff16146110ca57600080fd5b600154905090565b600080fd5b600073ffffffffffffffffffffffffffffffffffffffff82169050919050565b6000611102826110d7565b9050919050565b611112816110f7565b811461111d57600080fd5b50565b60008135905061112f81611109565b92915050565b60006020828403121561114b5761114a6110d2565b5b600061115984828501611120565b91505092915050565b60008115159050919050565b61117781611162565b82525050565b6000602082019050611192600083018461116e565b92915050565b600061ffff82169050919050565b6111af81611198565b82525050565b60006020820190506111ca60008301846111a6565b92915050565b6000819050919050565b6111e3816111d0565b82525050565b60006020820190506111fe60008301846111da565b92915050565b61120d816110f7565b82525050565b60006020820190506112286000830184611204565b92915050565b6000611239826110d7565b9050919050565b6112498161122e565b811461125457600080fd5b50565b60008135905061126681611240565b92915050565b611275816111d0565b811461128057600080fd5b50565b6000813590506112928161126c565b92915050565b600080604083850312156112af576112ae6110d2565b5b60006112bd85828601611257565b92505060206112ce85828601611283565b9150509250929050565b600081519050919050565b600082825260208201905092915050565b60005b838110156113125780820151818401526020810190506112f7565b83811115611321576000848401525b50505050565b6000601f19601f8301169050919050565b6000611343826112d8565b61134d81856112e3565b935061135d8185602086016112f4565b61136681611327565b840191505092915050565b6000602082019050818103600083015261138b8184611338565b905092915050565b6000602082840312156113a9576113a86110d2565b5b60006113b784828501611283565b91505092915050565b7f506c65617365206f70656e20746865206163636f756e74206669727374000000600082015250565b60006113f6601d836112e3565b9150611401826113c0565b602082019050919050565b60006020820190508181036000830152611425816113e9565b9050919050565b7f4e487b7100000000000000000000000000000000000000000000000000000000600052601160045260246000fd5b6000611466826111d0565b9150611471836111d0565b9250827fffffffffffffffffffffffffffffffffffffffffffffffffffffffffffffffff038211156114a6576114a561142c565b5b828201905092915050565b7f616d6f756e742073686f756c642062652067726561746572207468616e207a6560008201527f726f000000000000000000000000000000000000000000000000000000000000602082015250565b600061150d6022836112e3565b9150611518826114b1565b604082019050919050565b6000602082019050818103600083015261153c81611500565b9050919050565b7f696e737566666963656e742062616c616e636500000000000000000000000000600082015250565b60006115796013836112e3565b915061158482611543565b602082019050919050565b600060208201905081810360008301526115a88161156c565b9050919050565b7f546f2073656e6473207468652066756e64732062616e6b206163636f756e742060008201527f697320726571756972656420666f7220626f74682073656e64657220616e642060208201527f7265636569766572000000000000000000000000000000000000000000000000604082015250565b60006116316048836112e3565b915061163c826115af565b606082019050919050565b6000602082019050818103600083015261166081611624565b9050919050565b6000611672826111d0565b915061167d836111d0565b9250828210156116905761168f61142c565b5b828203905092915050565b7f54686973206163636f756e7420446f65736e2774206578697374000000000000600082015250565b60006116d1601a836112e3565b91506116dc8261169b565b602082019050919050565b60006020820190508181036000830152611700816116c4565b9050919050565b7f596f75206861766520696e737566666963656e742062616c616e636500000000600082015250565b600061173d601c836112e3565b915061174882611707565b602082019050919050565b6000602082019050818103600083015261176c81611730565b9050919050565b7f416d6f756e742073686f756c642062652067726561746572207468616e203000600082015250565b60006117a9601f836112e3565b91506117b482611773565b602082019050919050565b600060208201905081810360008301526117d88161179c565b9050919050565b7f4163636f756e7420416c72656164792045786973740000000000000000000000600082015250565b60006118156015836112e3565b9150611820826117df565b602082019050919050565b6000602082019050818103600083015261184481611808565b9050919050565b7f466f72206163636f756e74206f70656e696e6720796f75206d7573742068617660008201527f65206465706f736974206d6f6e65790000000000000000000000000000000000602082015250565b60006118a7602f836112e3565b91506118b28261184b565b604082019050919050565b600060208201905081810360008301526118d68161189a565b9050919050565b60006118e882611198565b915061ffff8214156118fd576118fc61142c565b5b600182019050919050565b600061191382611198565b915060008214156119275761192661142c565b5b60018203905091905056fea2646970667358221220cccccc732ab828e22a4f4f9341b283e906a8bdfb8cc107c075d4cffa476ba34464736f6c634300080a0033",
  "immutableReferences": {},
  "source": "    // SPDX-License-Identifier: GPL-3.0\r\n\r\n    pragma solidity >=0.7.0 <0.9.0;\r\n\r\n    contract banksystem{\r\n\r\n        address owner;\r\n        uint256 balanceReceived;\r\n        uint16 client_count;\r\n\r\n\r\n\r\n        mapping(address=>uint256) UserAccount;\r\n        mapping(address=>bool) Usercheck;\r\n      //  mapping(address=>uint256)public _balances;\r\n\r\n\r\n\r\n        constructor() payable\r\n        {\r\n            require( msg.value >= 50 ether,\"Minimum 50 ETHS required to start the bank\");\r\n            balanceReceived += msg.value;\r\n            owner = msg.sender;\r\n            client_count= 0;\r\n        }\r\n\r\n        modifier onlyOwner {\r\n         require(msg.sender == owner);\r\n         _;\r\n        }\r\n\r\n        function Bank_Owner()public view returns(address){\r\n\r\n            return owner;\r\n        }\r\n\r\n        function Total_BalanceReceived()public view onlyOwner returns(uint256){\r\n\r\n            return balanceReceived;\r\n        }\r\n\r\n        function Current_Balance() public view onlyOwner returns(uint256) {\r\n\r\n            //require(owner == msg.sender,\"only owner can view the Total amount\");\r\n            return address(this).balance;\r\n        }\r\n\r\n        function Total_Accounts() public view onlyOwner returns(uint16){\r\n\r\n            return client_count;\r\n        }\r\n\r\n        function Account_Status(address _account2) public view returns(bool) {\r\n\r\n            return Usercheck[_account2];\r\n\r\n        }\r\n\r\n\r\n        function Create_Account() public payable returns(string memory)\r\n        {\r\n            require(Usercheck[msg.sender] == false,\"Account Already Exist\" );\r\n            require(msg.value > 0 ether,\"For account opening you must have deposit money\");\r\n            UserAccount[msg.sender] = msg.value;\r\n            balanceReceived += msg.value;   \r\n            Usercheck[msg.sender] = true;\r\n         \r\n            if(client_count < 5)\r\n            {\r\n                client_count ++;\r\n                UserAccount[msg.sender] += 1 ether;\r\n            }\r\n            return 'Account Created';\r\n        }\r\n\r\n\r\n        function Deposit_Funds() public payable\r\n        {\r\n            require(Usercheck[msg.sender] == true , \"Please open the account first\");\r\n            UserAccount[msg.sender] += msg.value;\r\n            balanceReceived += msg.value;\r\n        }\r\n\r\n\r\n        function Withdraw_Funds(uint256 _amount) public payable returns(string memory)\r\n        {\r\n            //address payable _account1 = payable(msg.sender);\r\n           // require(owner == msg.sender, \"only bank can withdraw to clients\");\r\n            require(UserAccount[msg.sender] >= _amount , \"You have insufficent balance\");\r\n            require(Usercheck[msg.sender] == true , \"Please open the account first\");\r\n            require(_amount > 0 ether, \"Amount should be greater than 0\");\r\n            UserAccount[msg.sender] -= _amount;\r\n            payable(msg.sender).transfer(_amount);\r\n           // UserAccount[_account1] -= _amount;\r\n            return 'Withdrawl sucessfull';\r\n        }\r\n\r\n\r\n        function Balance_Inquiry(address _address1) public view returns(uint256)\r\n        {\r\n            require((Usercheck[msg.sender] == true) || (owner == msg.sender), \"This account Doesn't exist\");\r\n            return UserAccount[_address1];\r\n        }\r\n\r\n\r\n        function Transfer_Funds(address  payable _to,uint256 _amount1) public payable returns(string memory)\r\n        { \r\n            require(_amount1 > 0, \"amount should be greater than zero\");\r\n            require(UserAccount[msg.sender] >= _amount1,\"insufficent balance\");\r\n            require(((Usercheck[_to] == true) && (Usercheck[msg.sender] == true)),\"To sends the funds bank account is required for both sender and receiver\"); \r\n            UserAccount[msg.sender] -= _amount1;\r\n            _to.transfer(_amount1);\r\n            UserAccount[_to] += _amount1;\r\n            return 'Amount send sucessfully';\r\n        }\r\n\r\n\r\n        function Closing_Account() public payable returns(string memory)\r\n        {\r\n            require(Usercheck[msg.sender] == true,\"This account Doesn't exist\");\r\n            payable(msg.sender).transfer(UserAccount[msg.sender]);\r\n            UserAccount[msg.sender] = 0; \r\n            Usercheck[msg.sender] = false;\r\n            client_count--;\r\n            return 'Account is close sucessfully';\r\n        }\r\n\r\n\r\n        function Closing_Bank() public onlyOwner {\r\n           \r\n           // require(msg.sender == owner,\"you are not the owner\");\r\n            selfdestruct(payable(owner));\r\n        }\r\n\r\n        // function withdraw() public payable \r\n        // {\r\n        //     address payable _too = payable(msg.sender);\r\n        //     _too.transfer(address(this).balance);\r\n        // }\r\n    }",
  "sourcePath": "C:\\Users\\kegor\\OneDrive\\Desktop\\blockchain Task\\Banking SmartContract\\contracts\\banksystem.sol",
  "compiler": {
    "name": "solc",
    "version": "0.8.10+commit.fc410830.Emscripten.clang"
  },
  "schemaVersion": "3.4.4",
  "updatedAt": "2022-01-05T11:01:11.803Z",
  "devdoc": {
    "kind": "dev",
    "methods": {},
    "version": 1
  },
  "userdoc": {
    "kind": "user",
    "methods": {},
    "version": 1
  }
}